{
  "contractName": "MultiSigWallet",
  "abi": [
    {
      "inputs": [],
      "stateMutability": "payable",
      "type": "constructor"
    },
    {
      "inputs": [
        {
          "internalType": "address",
          "name": "",
          "type": "address"
        }
      ],
      "name": "balance",
      "outputs": [
        {
          "internalType": "uint256",
          "name": "",
          "type": "uint256"
        }
      ],
      "stateMutability": "view",
      "type": "function"
    },
    {
      "inputs": [
        {
          "internalType": "uint256",
          "name": "",
          "type": "uint256"
        }
      ],
      "name": "owners",
      "outputs": [
        {
          "internalType": "address",
          "name": "",
          "type": "address"
        }
      ],
      "stateMutability": "view",
      "type": "function"
    },
    {
      "inputs": [],
      "name": "deposit",
      "outputs": [],
      "stateMutability": "payable",
      "type": "function"
    },
    {
      "inputs": [
        {
          "internalType": "address",
          "name": "_owner",
          "type": "address"
        }
      ],
      "name": "addOwner",
      "outputs": [],
      "stateMutability": "nonpayable",
      "type": "function"
    },
    {
      "inputs": [
        {
          "internalType": "uint256",
          "name": "_amount",
          "type": "uint256"
        },
        {
          "internalType": "address payable",
          "name": "_recipient",
          "type": "address"
        }
      ],
      "name": "createTransaction",
      "outputs": [],
      "stateMutability": "nonpayable",
      "type": "function"
    },
    {
      "inputs": [
        {
          "internalType": "uint256",
          "name": "_id",
          "type": "uint256"
        }
      ],
      "name": "approveTransaction",
      "outputs": [],
      "stateMutability": "payable",
      "type": "function"
    },
    {
      "inputs": [],
      "name": "ownersList",
      "outputs": [
        {
          "internalType": "address[]",
          "name": "",
          "type": "address[]"
        }
      ],
      "stateMutability": "view",
      "type": "function"
    },
    {
      "inputs": [],
      "name": "transactionList",
      "outputs": [
        {
          "components": [
            {
              "internalType": "uint256",
              "name": "amount",
              "type": "uint256"
            },
            {
              "internalType": "address payable",
              "name": "recipient",
              "type": "address"
            },
            {
              "internalType": "uint256",
              "name": "numVotes",
              "type": "uint256"
            },
            {
              "internalType": "bool",
              "name": "hasBeenSent",
              "type": "bool"
            },
            {
              "internalType": "uint256",
              "name": "id",
              "type": "uint256"
            }
          ],
          "internalType": "struct MultiSigWallet.Transaction[]",
          "name": "",
          "type": "tuple[]"
        }
      ],
      "stateMutability": "view",
      "type": "function"
    },
    {
      "inputs": [],
      "name": "getBalance",
      "outputs": [
        {
          "internalType": "uint256",
          "name": "",
          "type": "uint256"
        }
      ],
      "stateMutability": "view",
      "type": "function"
    }
  ],
  "bytecode": "0x6080604052336000806101000a81548173ffffffffffffffffffffffffffffffffffffffff021916908373ffffffffffffffffffffffffffffffffffffffff160217905550600280819055506001339080600181540180825580915050600190039060005260206000200160009091909190916101000a81548173ffffffffffffffffffffffffffffffffffffffff021916908373ffffffffffffffffffffffffffffffffffffffff1602179055506113eb806100bd6000396000f3fe6080604052600436106100865760003560e01c80637065cb48116100595780637065cb481461013a5780637cf4c543146101635780639a64bb161461018c578063d0e30db0146101b7578063e3d670d7146101c157610086565b8063025e7c271461008b57806312065fe0146100c8578063242232d1146100f3578063515da4b91461010f575b600080fd5b34801561009757600080fd5b506100b260048036038101906100ad9190610ce7565b6101fe565b6040516100bf9190610d55565b60405180910390f35b3480156100d457600080fd5b506100dd61023d565b6040516100ea9190610d7f565b60405180910390f35b61010d60048036038101906101089190610ce7565b610245565b005b34801561011b57600080fd5b506101246107a1565b6040516101319190610efc565b60405180910390f35b34801561014657600080fd5b50610161600480360381019061015c9190610f4a565b61088f565b005b34801561016f57600080fd5b5061018a60048036038101906101859190610fa3565b610983565b005b34801561019857600080fd5b506101a1610b63565b6040516101ae91906110a1565b60405180910390f35b6101bf610bf1565b005b3480156101cd57600080fd5b506101e860048036038101906101e39190610f4a565b610c94565b6040516101f59190610d7f565b60405180910390f35b6001818154811061020e57600080fd5b906000526020600020016000915054906101000a900473ffffffffffffffffffffffffffffffffffffffff1681565b600047905090565b60005b600180549050811015610798573373ffffffffffffffffffffffffffffffffffffffff16600182815481106102805761027f6110c3565b5b9060005260206000200160009054906101000a900473ffffffffffffffffffffffffffffffffffffffff1673ffffffffffffffffffffffffffffffffffffffff1614156107855760001515600583815481106102df576102de6110c3565b5b906000526020600020906005020160030160009054906101000a900460ff16151514610340576040517f08c379a00000000000000000000000000000000000000000000000000000000081526004016103379061114f565b60405180910390fd5b60001515600360003373ffffffffffffffffffffffffffffffffffffffff1673ffffffffffffffffffffffffffffffffffffffff168152602001908152602001600020600084815260200190815260200160002060009054906101000a900460ff161515146103e4576040517f08c379a00000000000000000000000000000000000000000000000000000000081526004016103db906111bb565b60405180910390fd5b600582815481106103f8576103f76110c3565b5b90600052602060002090600502016000015447101561044c576040517f08c379a000000000000000000000000000000000000000000000000000000000815260040161044390611227565b60405180910390fd5b600582815481106104605761045f6110c3565b5b9060005260206000209060050201600201600081548092919061048290611276565b91905055506001600360003373ffffffffffffffffffffffffffffffffffffffff1673ffffffffffffffffffffffffffffffffffffffff168152602001908152602001600020600084815260200190815260200160002060006101000a81548160ff02191690831515021790555060025460058381548110610507576105066110c3565b5b906000526020600020906005020160020154141561077f57600160058381548110610535576105346110c3565b5b906000526020600020906005020160030160006101000a81548160ff021916908315150217905550600060058381548110610573576105726110c3565b5b906000526020600020906005020160010160009054906101000a900473ffffffffffffffffffffffffffffffffffffffff1673ffffffffffffffffffffffffffffffffffffffff16319050600583815481106105d2576105d16110c3565b5b906000526020600020906005020160010160009054906101000a900473ffffffffffffffffffffffffffffffffffffffff1673ffffffffffffffffffffffffffffffffffffffff166108fc60058581548110610631576106306110c3565b5b9060005260206000209060050201600001549081150290604051600060405180830381858888f1935050505015801561066e573d6000803e3d6000fd5b50600060058481548110610685576106846110c3565b5b906000526020600020906005020160010160009054906101000a900473ffffffffffffffffffffffffffffffffffffffff1673ffffffffffffffffffffffffffffffffffffffff16319050600082826106de91906112bf565b90508060046000600588815481106106f9576106f86110c3565b5b906000526020600020906005020160010160009054906101000a900473ffffffffffffffffffffffffffffffffffffffff1673ffffffffffffffffffffffffffffffffffffffff1673ffffffffffffffffffffffffffffffffffffffff168152602001908152602001600020600082825461077491906112f3565b925050819055505050505b5061079e565b808061079090611276565b915050610248565b50600080fd5b50565b60606005805480602002602001604051908101604052809291908181526020016000905b8282101561088657838290600052602060002090600502016040518060a0016040529081600082015481526020016001820160009054906101000a900473ffffffffffffffffffffffffffffffffffffffff1673ffffffffffffffffffffffffffffffffffffffff1673ffffffffffffffffffffffffffffffffffffffff168152602001600282015481526020016003820160009054906101000a900460ff16151515158152602001600482015481525050815260200190600101906107c5565b50505050905090565b60008054906101000a900473ffffffffffffffffffffffffffffffffffffffff1673ffffffffffffffffffffffffffffffffffffffff163373ffffffffffffffffffffffffffffffffffffffff161461091d576040517f08c379a000000000000000000000000000000000000000000000000000000000815260040161091490611395565b60405180910390fd5b6001819080600181540180825580915050600190039060005260206000200160009091909190916101000a81548173ffffffffffffffffffffffffffffffffffffffff021916908373ffffffffffffffffffffffffffffffffffffffff16021790555050565b60005b600180549050811015610b59573373ffffffffffffffffffffffffffffffffffffffff16600182815481106109be576109bd6110c3565b5b9060005260206000200160009054906101000a900473ffffffffffffffffffffffffffffffffffffffff1673ffffffffffffffffffffffffffffffffffffffff161415610b465782471015610a48576040517f08c379a0000000000000000000000000000000000000000000000000000000008152600401610a3f90611227565b60405180910390fd5b60056040518060a001604052808581526020018473ffffffffffffffffffffffffffffffffffffffff1681526020016000815260200160001515815260200160058054905081525090806001815401808255809150506001900390600052602060002090600502016000909190919091506000820151816000015560208201518160010160006101000a81548173ffffffffffffffffffffffffffffffffffffffff021916908373ffffffffffffffffffffffffffffffffffffffff1602179055506040820151816002015560608201518160030160006101000a81548160ff02191690831515021790555060808201518160040155505050610b5f565b8080610b5190611276565b915050610986565b50600080fd5b5050565b60606001805480602002602001604051908101604052809291908181526020018280548015610be757602002820191906000526020600020905b8160009054906101000a900473ffffffffffffffffffffffffffffffffffffffff1673ffffffffffffffffffffffffffffffffffffffff1681526020019060010190808311610b9d575b5050505050905090565b60005b600180549050811015610c8c573373ffffffffffffffffffffffffffffffffffffffff1660018281548110610c2c57610c2b6110c3565b5b9060005260206000200160009054906101000a900473ffffffffffffffffffffffffffffffffffffffff1673ffffffffffffffffffffffffffffffffffffffff161415610c795750610c92565b8080610c8490611276565b915050610bf4565b50600080fd5b565b60046020528060005260406000206000915090505481565b600080fd5b6000819050919050565b610cc481610cb1565b8114610ccf57600080fd5b50565b600081359050610ce181610cbb565b92915050565b600060208284031215610cfd57610cfc610cac565b5b6000610d0b84828501610cd2565b91505092915050565b600073ffffffffffffffffffffffffffffffffffffffff82169050919050565b6000610d3f82610d14565b9050919050565b610d4f81610d34565b82525050565b6000602082019050610d6a6000830184610d46565b92915050565b610d7981610cb1565b82525050565b6000602082019050610d946000830184610d70565b92915050565b600081519050919050565b600082825260208201905092915050565b6000819050602082019050919050565b610dcf81610cb1565b82525050565b6000610de082610d14565b9050919050565b610df081610dd5565b82525050565b60008115159050919050565b610e0b81610df6565b82525050565b60a082016000820151610e276000850182610dc6565b506020820151610e3a6020850182610de7565b506040820151610e4d6040850182610dc6565b506060820151610e606060850182610e02565b506080820151610e736080850182610dc6565b50505050565b6000610e858383610e11565b60a08301905092915050565b6000602082019050919050565b6000610ea982610d9a565b610eb38185610da5565b9350610ebe83610db6565b8060005b83811015610eef578151610ed68882610e79565b9750610ee183610e91565b925050600181019050610ec2565b5085935050505092915050565b60006020820190508181036000830152610f168184610e9e565b905092915050565b610f2781610d34565b8114610f3257600080fd5b50565b600081359050610f4481610f1e565b92915050565b600060208284031215610f6057610f5f610cac565b5b6000610f6e84828501610f35565b91505092915050565b610f8081610dd5565b8114610f8b57600080fd5b50565b600081359050610f9d81610f77565b92915050565b60008060408385031215610fba57610fb9610cac565b5b6000610fc885828601610cd2565b9250506020610fd985828601610f8e565b9150509250929050565b600081519050919050565b600082825260208201905092915050565b6000819050602082019050919050565b61101881610d34565b82525050565b600061102a838361100f565b60208301905092915050565b6000602082019050919050565b600061104e82610fe3565b6110588185610fee565b935061106383610fff565b8060005b8381101561109457815161107b888261101e565b975061108683611036565b925050600181019050611067565b5085935050505092915050565b600060208201905081810360008301526110bb8184611043565b905092915050565b7f4e487b7100000000000000000000000000000000000000000000000000000000600052603260045260246000fd5b600082825260208201905092915050565b7f5472616e73616374696f6e20616c72656164792073656e740000000000000000600082015250565b60006111396018836110f2565b915061114482611103565b602082019050919050565b600060208201905081810360008301526111688161112c565b9050919050565b7f416c726561647920766f74656400000000000000000000000000000000000000600082015250565b60006111a5600d836110f2565b91506111b08261116f565b602082019050919050565b600060208201905081810360008301526111d481611198565b9050919050565b7f4e6f7420656e6f7567682066756e647300000000000000000000000000000000600082015250565b60006112116010836110f2565b915061121c826111db565b602082019050919050565b6000602082019050818103600083015261124081611204565b9050919050565b7f4e487b7100000000000000000000000000000000000000000000000000000000600052601160045260246000fd5b600061128182610cb1565b91507fffffffffffffffffffffffffffffffffffffffffffffffffffffffffffffffff8214156112b4576112b3611247565b5b600182019050919050565b60006112ca82610cb1565b91506112d583610cb1565b9250828210156112e8576112e7611247565b5b828203905092915050565b60006112fe82610cb1565b915061130983610cb1565b9250827fffffffffffffffffffffffffffffffffffffffffffffffffffffffffffffffff0382111561133e5761133d611247565b5b828201905092915050565b7f596f7520617265206e6f7420636f6e7472616374206f776e6572000000000000600082015250565b600061137f601a836110f2565b915061138a82611349565b602082019050919050565b600060208201905081810360008301526113ae81611372565b905091905056fea2646970667358221220bb0da2ef576ee88787f713a03a5f9a633fe14e4525ef95de754804ac613e4e9a64736f6c63430008090033",
  "immutableReferences": {},
  "source": "pragma solidity 0.8;\r\npragma abicoder v2;\r\n\r\ncontract MultiSigWallet {\r\n    \r\n    address contractOwner;\r\n    address[] public owners;\r\n    uint limit;\r\n    \r\n    mapping(address => mapping(uint => bool)) voted;\r\n    mapping(address => uint) public balance;\r\n   \r\n    struct Transaction {\r\n        uint amount;\r\n        address payable recipient;\r\n        uint numVotes;\r\n        bool hasBeenSent;\r\n        uint id;\r\n    }\r\n    \r\n    Transaction[] transactionArray;\r\n    \r\n    constructor() payable {\r\n        contractOwner = msg.sender;\r\n        limit = 2;\r\n        owners.push(msg.sender);\r\n    }\r\n    \r\n    modifier onlyOwner() {\r\n         for(uint i=0; i < owners.length; i++) {\r\n            if (owners[i] == msg.sender) {\r\n                _;\r\n                return;\r\n            }\r\n        }\r\n        revert();\r\n    }\r\n    \r\n    function deposit() public payable onlyOwner {}\r\n    \r\n    function addOwner(address _owner) public {\r\n        require(msg.sender == contractOwner, \"You are not contract owner\");\r\n        owners.push(_owner);\r\n    }\r\n    \r\n    function createTransaction(uint _amount, address payable _recipient) public onlyOwner {\r\n        require(address(this).balance >= _amount, \"Not enough funds\");\r\n        transactionArray.push(Transaction(_amount, _recipient, 0, false, transactionArray.length));\r\n    }\r\n    \r\n    function approveTransaction(uint _id) public payable onlyOwner {\r\n        require(transactionArray[_id].hasBeenSent == false, \"Transaction already sent\");\r\n        require(voted[msg.sender][_id] == false, \"Already voted\");\r\n        require(address(this).balance >= transactionArray[_id].amount, \"Not enough funds\");\r\n        transactionArray[_id].numVotes++;\r\n        voted[msg.sender][_id] = true;\r\n        \r\n        if(transactionArray[_id].numVotes == limit) {\r\n            transactionArray[_id].hasBeenSent = true;\r\n            uint prevBalance = transactionArray[_id].recipient.balance;\r\n            transactionArray[_id].recipient.transfer(transactionArray[_id].amount);\r\n            uint newBalance = transactionArray[_id].recipient.balance;\r\n            uint receivedBalance = newBalance - prevBalance;\r\n            balance[transactionArray[_id].recipient] += receivedBalance;\r\n        }\r\n    }\r\n    \r\n    function ownersList() public view returns(address[] memory) {\r\n       return owners;\r\n    }\r\n   \r\n    function transactionList() public view returns(Transaction[] memory) {\r\n        return transactionArray;\r\n    }\r\n    \r\n    function getBalance() public view returns(uint) {\r\n        return address(this).balance;\r\n    }\r\n    \r\n}",
  "sourcePath": "C:\\Users\\mbach\\WebDev\\MultiSigSolo\\contracts\\MultiSigWallet.sol",
  "compiler": {
    "name": "solc",
    "version": "0.8.9+commit.e5eed63a.Emscripten.clang"
  },
  "schemaVersion": "3.4.3",
  "updatedAt": "2021-10-06T01:35:57.131Z",
  "devdoc": {
    "kind": "dev",
    "methods": {},
    "version": 1
  },
  "userdoc": {
    "kind": "user",
    "methods": {},
    "version": 1
  }
}