{
  "contractName": "MultiSigSolo",
  "abi": [
    {
      "inputs": [
        {
          "internalType": "uint256",
          "name": "_limit",
          "type": "uint256"
        }
      ],
      "stateMutability": "payable",
      "type": "constructor"
    },
    {
      "inputs": [],
      "name": "deposit",
      "outputs": [],
      "stateMutability": "payable",
      "type": "function"
    },
    {
      "inputs": [
        {
          "internalType": "address",
          "name": "_owner",
          "type": "address"
        }
      ],
      "name": "addOwner",
      "outputs": [],
      "stateMutability": "nonpayable",
      "type": "function"
    },
    {
      "inputs": [
        {
          "internalType": "uint256",
          "name": "_amount",
          "type": "uint256"
        },
        {
          "internalType": "address payable",
          "name": "_recipient",
          "type": "address"
        }
      ],
      "name": "createTransaction",
      "outputs": [],
      "stateMutability": "nonpayable",
      "type": "function"
    },
    {
      "inputs": [
        {
          "internalType": "uint256",
          "name": "_id",
          "type": "uint256"
        }
      ],
      "name": "approveTransaction",
      "outputs": [],
      "stateMutability": "payable",
      "type": "function"
    },
    {
      "inputs": [],
      "name": "ownersList",
      "outputs": [
        {
          "internalType": "address[]",
          "name": "",
          "type": "address[]"
        }
      ],
      "stateMutability": "view",
      "type": "function"
    },
    {
      "inputs": [],
      "name": "transactionList",
      "outputs": [
        {
          "components": [
            {
              "internalType": "uint256",
              "name": "amount",
              "type": "uint256"
            },
            {
              "internalType": "address payable",
              "name": "recipient",
              "type": "address"
            },
            {
              "internalType": "uint256",
              "name": "numVotes",
              "type": "uint256"
            },
            {
              "internalType": "bool",
              "name": "hasBeenSent",
              "type": "bool"
            },
            {
              "internalType": "uint256",
              "name": "id",
              "type": "uint256"
            }
          ],
          "internalType": "struct MultiSigSolo.Transaction[]",
          "name": "",
          "type": "tuple[]"
        }
      ],
      "stateMutability": "view",
      "type": "function"
    },
    {
      "inputs": [],
      "name": "getBalance",
      "outputs": [
        {
          "internalType": "uint256",
          "name": "",
          "type": "uint256"
        }
      ],
      "stateMutability": "view",
      "type": "function"
    }
  ],
  "bytecode": "0x608060405260405161127738038061127783398181016040528101906100259190610110565b336000806101000a81548173ffffffffffffffffffffffffffffffffffffffff021916908373ffffffffffffffffffffffffffffffffffffffff160217905550806002819055506001339080600181540180825580915050600190039060005260206000200160009091909190916101000a81548173ffffffffffffffffffffffffffffffffffffffff021916908373ffffffffffffffffffffffffffffffffffffffff1602179055505061013d565b600080fd5b6000819050919050565b6100ed816100da565b81146100f857600080fd5b50565b60008151905061010a816100e4565b92915050565b600060208284031215610126576101256100d5565b5b6000610134848285016100fb565b91505092915050565b61112b8061014c6000396000f3fe6080604052600436106100705760003560e01c80637065cb481161004e5780637065cb48146100e75780637cf4c543146101105780639a64bb1614610139578063d0e30db01461016457610070565b806312065fe014610075578063242232d1146100a0578063515da4b9146100bc575b600080fd5b34801561008157600080fd5b5061008a61016e565b6040516100979190610a4d565b60405180910390f35b6100ba60048036038101906100b59190610a99565b610176565b005b3480156100c857600080fd5b506100d16104c1565b6040516100de9190610c48565b60405180910390f35b3480156100f357600080fd5b5061010e60048036038101906101099190610ca8565b6105af565b005b34801561011c57600080fd5b5061013760048036038101906101329190610d01565b6106a3565b005b34801561014557600080fd5b5061014e6108c3565b60405161015b9190610dff565b60405180910390f35b61016c610951565b005b600047905090565b600015156004828154811061018e5761018d610e21565b5b906000526020600020906005020160030160009054906101000a900460ff161515146101ef576040517f08c379a00000000000000000000000000000000000000000000000000000000081526004016101e690610ead565b60405180910390fd5b60001515600360003373ffffffffffffffffffffffffffffffffffffffff1673ffffffffffffffffffffffffffffffffffffffff168152602001908152602001600020600083815260200190815260200160002060009054906101000a900460ff16151514610293576040517f08c379a000000000000000000000000000000000000000000000000000000000815260040161028a90610f19565b60405180910390fd5b600481815481106102a7576102a6610e21565b5b9060005260206000209060050201600001544710156102fb576040517f08c379a00000000000000000000000000000000000000000000000000000000081526004016102f290610f85565b60405180910390fd5b6004818154811061030f5761030e610e21565b5b9060005260206000209060050201600201600081548092919061033190610fd4565b91905055506001600360003373ffffffffffffffffffffffffffffffffffffffff1673ffffffffffffffffffffffffffffffffffffffff168152602001908152602001600020600083815260200190815260200160002060006101000a81548160ff021916908315150217905550600254600482815481106103b6576103b5610e21565b5b90600052602060002090600502016002015414156104be576001600482815481106103e4576103e3610e21565b5b906000526020600020906005020160030160006101000a81548160ff021916908315150217905550600481815481106104205761041f610e21565b5b906000526020600020906005020160010160009054906101000a900473ffffffffffffffffffffffffffffffffffffffff1673ffffffffffffffffffffffffffffffffffffffff166108fc6004838154811061047f5761047e610e21565b5b9060005260206000209060050201600001549081150290604051600060405180830381858888f193505050501580156104bc573d6000803e3d6000fd5b505b50565b60606004805480602002602001604051908101604052809291908181526020016000905b828210156105a657838290600052602060002090600502016040518060a0016040529081600082015481526020016001820160009054906101000a900473ffffffffffffffffffffffffffffffffffffffff1673ffffffffffffffffffffffffffffffffffffffff1673ffffffffffffffffffffffffffffffffffffffff168152602001600282015481526020016003820160009054906101000a900460ff16151515158152602001600482015481525050815260200190600101906104e5565b50505050905090565b60008054906101000a900473ffffffffffffffffffffffffffffffffffffffff1673ffffffffffffffffffffffffffffffffffffffff163373ffffffffffffffffffffffffffffffffffffffff161461063d576040517f08c379a000000000000000000000000000000000000000000000000000000000815260040161063490611069565b60405180910390fd5b6001819080600181540180825580915050600190039060005260206000200160009091909190916101000a81548173ffffffffffffffffffffffffffffffffffffffff021916908373ffffffffffffffffffffffffffffffffffffffff16021790555050565b6000805b60018054905081101561073e57600181815481106106c8576106c7610e21565b5b9060005260206000200160009054906101000a900473ffffffffffffffffffffffffffffffffffffffff1673ffffffffffffffffffffffffffffffffffffffff163373ffffffffffffffffffffffffffffffffffffffff16141561072b57600191505b808061073690610fd4565b9150506106a7565b506001905080610783576040517f08c379a000000000000000000000000000000000000000000000000000000000815260040161077a906110d5565b60405180910390fd5b824710156107c6576040517f08c379a00000000000000000000000000000000000000000000000000000000081526004016107bd90610f85565b60405180910390fd5b60046040518060a001604052808581526020018473ffffffffffffffffffffffffffffffffffffffff1681526020016000815260200160001515815260200160048054905081525090806001815401808255809150506001900390600052602060002090600502016000909190919091506000820151816000015560208201518160010160006101000a81548173ffffffffffffffffffffffffffffffffffffffff021916908373ffffffffffffffffffffffffffffffffffffffff1602179055506040820151816002015560608201518160030160006101000a81548160ff021916908315150217905550608082015181600401555050505050565b6060600180548060200260200160405190810160405280929190818152602001828054801561094757602002820191906000526020600020905b8160009054906101000a900473ffffffffffffffffffffffffffffffffffffffff1673ffffffffffffffffffffffffffffffffffffffff16815260200190600101908083116108fd575b5050505050905090565b6000805b6001805490508110156109ec576001818154811061097657610975610e21565b5b9060005260206000200160009054906101000a900473ffffffffffffffffffffffffffffffffffffffff1673ffffffffffffffffffffffffffffffffffffffff163373ffffffffffffffffffffffffffffffffffffffff1614156109d957600191505b80806109e490610fd4565b915050610955565b506001905080610a31576040517f08c379a0000000000000000000000000000000000000000000000000000000008152600401610a28906110d5565b60405180910390fd5b50565b6000819050919050565b610a4781610a34565b82525050565b6000602082019050610a626000830184610a3e565b92915050565b600080fd5b610a7681610a34565b8114610a8157600080fd5b50565b600081359050610a9381610a6d565b92915050565b600060208284031215610aaf57610aae610a68565b5b6000610abd84828501610a84565b91505092915050565b600081519050919050565b600082825260208201905092915050565b6000819050602082019050919050565b610afb81610a34565b82525050565b600073ffffffffffffffffffffffffffffffffffffffff82169050919050565b6000610b2c82610b01565b9050919050565b610b3c81610b21565b82525050565b60008115159050919050565b610b5781610b42565b82525050565b60a082016000820151610b736000850182610af2565b506020820151610b866020850182610b33565b506040820151610b996040850182610af2565b506060820151610bac6060850182610b4e565b506080820151610bbf6080850182610af2565b50505050565b6000610bd18383610b5d565b60a08301905092915050565b6000602082019050919050565b6000610bf582610ac6565b610bff8185610ad1565b9350610c0a83610ae2565b8060005b83811015610c3b578151610c228882610bc5565b9750610c2d83610bdd565b925050600181019050610c0e565b5085935050505092915050565b60006020820190508181036000830152610c628184610bea565b905092915050565b6000610c7582610b01565b9050919050565b610c8581610c6a565b8114610c9057600080fd5b50565b600081359050610ca281610c7c565b92915050565b600060208284031215610cbe57610cbd610a68565b5b6000610ccc84828501610c93565b91505092915050565b610cde81610b21565b8114610ce957600080fd5b50565b600081359050610cfb81610cd5565b92915050565b60008060408385031215610d1857610d17610a68565b5b6000610d2685828601610a84565b9250506020610d3785828601610cec565b9150509250929050565b600081519050919050565b600082825260208201905092915050565b6000819050602082019050919050565b610d7681610c6a565b82525050565b6000610d888383610d6d565b60208301905092915050565b6000602082019050919050565b6000610dac82610d41565b610db68185610d4c565b9350610dc183610d5d565b8060005b83811015610df2578151610dd98882610d7c565b9750610de483610d94565b925050600181019050610dc5565b5085935050505092915050565b60006020820190508181036000830152610e198184610da1565b905092915050565b7f4e487b7100000000000000000000000000000000000000000000000000000000600052603260045260246000fd5b600082825260208201905092915050565b7f5472616e73616374696f6e20616c72656164792073656e740000000000000000600082015250565b6000610e97601883610e50565b9150610ea282610e61565b602082019050919050565b60006020820190508181036000830152610ec681610e8a565b9050919050565b7f416c726561647920766f74656400000000000000000000000000000000000000600082015250565b6000610f03600d83610e50565b9150610f0e82610ecd565b602082019050919050565b60006020820190508181036000830152610f3281610ef6565b9050919050565b7f4e6f7420656e6f7567682066756e647300000000000000000000000000000000600082015250565b6000610f6f601083610e50565b9150610f7a82610f39565b602082019050919050565b60006020820190508181036000830152610f9e81610f62565b9050919050565b7f4e487b7100000000000000000000000000000000000000000000000000000000600052601160045260246000fd5b6000610fdf82610a34565b91507fffffffffffffffffffffffffffffffffffffffffffffffffffffffffffffffff82141561101257611011610fa5565b5b600182019050919050565b7f596f7520617265206e6f7420636f6e7472616374206f776e6572000000000000600082015250565b6000611053601a83610e50565b915061105e8261101d565b602082019050919050565b6000602082019050818103600083015261108281611046565b9050919050565b7f596f7520617265206e6f7420616e206f776e6572000000000000000000000000600082015250565b60006110bf601483610e50565b91506110ca82611089565b602082019050919050565b600060208201905081810360008301526110ee816110b2565b905091905056fea2646970667358221220d004033781ea5dd7d22eeeaf4e4e3eef2b5bb8246913ab6635e22462902eb40064736f6c63430008090033",
  "immutableReferences": {},
  "source": "pragma solidity 0.8;\r\npragma abicoder v2;\r\n\r\ncontract MultiSigSolo {\r\n    \r\n    address contractOwner;\r\n    address[] owners;\r\n    uint limit;\r\n    \r\n    mapping(address => mapping(uint => bool)) voted;\r\n   \r\n    struct Transaction {\r\n        uint amount;\r\n        address payable recipient;\r\n        uint numVotes;\r\n        bool hasBeenSent;\r\n        uint id;\r\n    }\r\n    \r\n    Transaction[] transactionArray;\r\n    \r\n    constructor(uint _limit) payable {\r\n        contractOwner = msg.sender;\r\n        limit = _limit;\r\n        owners.push(msg.sender);\r\n    }\r\n    \r\n    modifier onlyOwner() {\r\n        bool account = false;\r\n        for(uint i=0; i < owners.length; i++) {\r\n            if (msg.sender == owners[i]) {\r\n                account = true;\r\n            }\r\n        }\r\n        require(account = true, \"You are not an owner\");\r\n            _;\r\n    }\r\n    \r\n    function deposit() public payable onlyOwner {}\r\n    \r\n    function addOwner(address _owner) public {\r\n        require(msg.sender == contractOwner, \"You are not contract owner\");\r\n        owners.push(_owner);\r\n    }\r\n    \r\n    function createTransaction(uint _amount, address payable _recipient) public onlyOwner {\r\n        require(address(this).balance >= _amount, \"Not enough funds\");\r\n        transactionArray.push(Transaction(_amount, _recipient, 0, false, transactionArray.length));\r\n    }\r\n    \r\n    function approveTransaction(uint _id) public payable {\r\n        require(transactionArray[_id].hasBeenSent == false, \"Transaction already sent\");\r\n        require(voted[msg.sender][_id] == false, \"Already voted\");\r\n        require(address(this).balance >= transactionArray[_id].amount, \"Not enough funds\");\r\n        transactionArray[_id].numVotes++;\r\n        voted[msg.sender][_id] = true;\r\n        \r\n        if(transactionArray[_id].numVotes == limit) {\r\n            transactionArray[_id].hasBeenSent = true;\r\n            transactionArray[_id].recipient.transfer(transactionArray[_id].amount);\r\n        }\r\n    }\r\n    \r\n    function ownersList() public view returns(address[] memory) {\r\n       return owners;\r\n    }\r\n   \r\n    function transactionList() public view returns(Transaction[] memory) {\r\n        return transactionArray;\r\n    }\r\n    \r\n    function getBalance() public view returns(uint) {\r\n        return address(this).balance;\r\n    }\r\n    \r\n}",
  "sourcePath": "C:\\Users\\mbach\\WebDev\\MultiSigSolo\\contracts\\MultiSigWallet.sol",
  "compiler": {
    "name": "solc",
    "version": "0.8.9+commit.e5eed63a.Emscripten.clang"
  },
  "schemaVersion": "3.4.3",
  "updatedAt": "2021-10-05T23:10:13.944Z",
  "devdoc": {
    "kind": "dev",
    "methods": {},
    "version": 1
  },
  "userdoc": {
    "kind": "user",
    "methods": {},
    "version": 1
  }
}